{
  "_format": "hh-sol-artifact-1",
  "contractName": "sonnePositionManager",
  "sourceName": "contracts/sonnePositionManger.sol",
  "abi": [
    {
      "inputs": [
        {
          "internalType": "address",
          "name": "comptrollerAddress",
          "type": "address"
        },
        {
          "internalType": "address",
          "name": "veloRouterAddress",
          "type": "address"
        },
        {
          "internalType": "address",
          "name": "unitrollerAddress",
          "type": "address"
        },
        {
          "internalType": "address",
          "name": "SONNE",
          "type": "address"
        }
      ],
      "stateMutability": "nonpayable",
      "type": "constructor"
    },
    {
      "anonymous": false,
      "inputs": [
        {
          "indexed": true,
          "internalType": "address",
          "name": "previousOwner",
          "type": "address"
        },
        {
          "indexed": true,
          "internalType": "address",
          "name": "newOwner",
          "type": "address"
        }
      ],
      "name": "OwnershipTransferred",
      "type": "event"
    },
    {
      "inputs": [
        {
          "internalType": "address",
          "name": "soTokenAddress",
          "type": "address"
        },
        {
          "internalType": "uint8",
          "name": "leverage",
          "type": "uint8"
        },
        {
          "internalType": "uint256",
          "name": "collateralFactorNumeratorXe18",
          "type": "uint256"
        },
        {
          "internalType": "bool",
          "name": "isSimpleSwap",
          "type": "bool"
        },
        {
          "internalType": "bool",
          "name": "isStable",
          "type": "bool"
        },
        {
          "internalType": "uint256",
          "name": "amountOutMin",
          "type": "uint256"
        },
        {
          "components": [
            {
              "internalType": "address",
              "name": "from",
              "type": "address"
            },
            {
              "internalType": "address",
              "name": "to",
              "type": "address"
            },
            {
              "internalType": "bool",
              "name": "stable",
              "type": "bool"
            }
          ],
          "internalType": "struct IveloRouter.route[]",
          "name": "routes",
          "type": "tuple[]"
        },
        {
          "internalType": "uint256",
          "name": "deadline",
          "type": "uint256"
        }
      ],
      "name": "claimAndReinvest",
      "outputs": [],
      "stateMutability": "nonpayable",
      "type": "function"
    },
    {
      "inputs": [
        {
          "internalType": "address",
          "name": "soTokenAddress",
          "type": "address"
        },
        {
          "internalType": "uint256",
          "name": "collateralFactorNumeratorXe18",
          "type": "uint256"
        }
      ],
      "name": "closePosition",
      "outputs": [],
      "stateMutability": "nonpayable",
      "type": "function"
    },
    {
      "inputs": [
        {
          "internalType": "address",
          "name": "erc20address",
          "type": "address"
        },
        {
          "internalType": "address",
          "name": "soTokenAddress",
          "type": "address"
        }
      ],
      "name": "listSoToken",
      "outputs": [],
      "stateMutability": "nonpayable",
      "type": "function"
    },
    {
      "inputs": [
        {
          "internalType": "uint256",
          "name": "initialAmount",
          "type": "uint256"
        },
        {
          "internalType": "uint8",
          "name": "leverage",
          "type": "uint8"
        },
        {
          "internalType": "uint256",
          "name": "collateralFactorNumeratorXe18",
          "type": "uint256"
        },
        {
          "internalType": "address",
          "name": "erc20address",
          "type": "address"
        },
        {
          "internalType": "address",
          "name": "soTokenAddress",
          "type": "address"
        }
      ],
      "name": "openPosition",
      "outputs": [],
      "stateMutability": "nonpayable",
      "type": "function"
    },
    {
      "inputs": [],
      "name": "owner",
      "outputs": [
        {
          "internalType": "address",
          "name": "",
          "type": "address"
        }
      ],
      "stateMutability": "view",
      "type": "function"
    },
    {
      "inputs": [],
      "name": "renounceOwnership",
      "outputs": [],
      "stateMutability": "nonpayable",
      "type": "function"
    },
    {
      "inputs": [
        {
          "internalType": "address",
          "name": "tokenAddress",
          "type": "address"
        }
      ],
      "name": "returnERC20",
      "outputs": [],
      "stateMutability": "nonpayable",
      "type": "function"
    },
    {
      "inputs": [
        {
          "internalType": "address",
          "name": "newOwner",
          "type": "address"
        }
      ],
      "name": "transferOwnership",
      "outputs": [],
      "stateMutability": "nonpayable",
      "type": "function"
    },
    {
      "inputs": [
        {
          "internalType": "address",
          "name": "comptrollerAddress",
          "type": "address"
        },
        {
          "internalType": "address",
          "name": "veloRouterAddress",
          "type": "address"
        },
        {
          "internalType": "address",
          "name": "unitrollerAddress",
          "type": "address"
        },
        {
          "internalType": "address",
          "name": "SONNE",
          "type": "address"
        }
      ],
      "name": "updateAddresses",
      "outputs": [],
      "stateMutability": "nonpayable",
      "type": "function"
    }
  ],
  "bytecode": "0x60806040523480156200001157600080fd5b50604051620025e8380380620025e883398181016040528101906200003791906200029b565b620000576200004b6200016560201b60201c565b6200016d60201b60201c565b83600260006101000a81548173ffffffffffffffffffffffffffffffffffffffff021916908373ffffffffffffffffffffffffffffffffffffffff16021790555082600360006101000a81548173ffffffffffffffffffffffffffffffffffffffff021916908373ffffffffffffffffffffffffffffffffffffffff16021790555081600460006101000a81548173ffffffffffffffffffffffffffffffffffffffff021916908373ffffffffffffffffffffffffffffffffffffffff16021790555080600160006101000a81548173ffffffffffffffffffffffffffffffffffffffff021916908373ffffffffffffffffffffffffffffffffffffffff160217905550505050506200030d565b600033905090565b60008060009054906101000a900473ffffffffffffffffffffffffffffffffffffffff169050816000806101000a81548173ffffffffffffffffffffffffffffffffffffffff021916908373ffffffffffffffffffffffffffffffffffffffff1602179055508173ffffffffffffffffffffffffffffffffffffffff168173ffffffffffffffffffffffffffffffffffffffff167f8be0079c531659141344cd1fd0a4f28419497f9722a3daafe3b4186f6b6457e060405160405180910390a35050565b600080fd5b600073ffffffffffffffffffffffffffffffffffffffff82169050919050565b6000620002638262000236565b9050919050565b620002758162000256565b81146200028157600080fd5b50565b60008151905062000295816200026a565b92915050565b60008060008060808587031215620002b857620002b762000231565b5b6000620002c88782880162000284565b9450506020620002db8782880162000284565b9350506040620002ee8782880162000284565b9250506060620003018782880162000284565b91505092959194509250565b6122cb806200031d6000396000f3fe608060405234801561001057600080fd5b50600436106100935760003560e01c80638da5cb5b116100665780638da5cb5b146100f6578063c729366814610114578063d7cff5ef14610130578063f2fde38b1461014c578063f48b2fb91461016857610093565b80636d49329c14610098578063715018a6146100b4578063742fe1f8146100be57806384fbfc5b146100da575b600080fd5b6100b260048036038101906100ad9190611600565b610184565b005b6100bc610660565b005b6100d860048036038101906100d391906116d2565b610674565b005b6100f460048036038101906100ef9190611712565b610ab6565b005b6100fe610b55565b60405161010b919061179c565b60405180910390f35b61012e600480360381019061012991906117b7565b610b7e565b005b61014a600480360381019061014591906117e4565b610c87565b005b610166600480360381019061016191906117b7565b610e74565b005b610182600480360381019061017d9190611824565b610ef7565b005b61018c611009565b6000600167ffffffffffffffff8111156101a9576101a8611454565b5b6040519080825280602002602001820160405280156101d75781602001602082028036833780820191505090505b50905088816000815181106101ef576101ee61188b565b5b602002602001019073ffffffffffffffffffffffffffffffffffffffff16908173ffffffffffffffffffffffffffffffffffffffff1681525050600460009054906101000a900473ffffffffffffffffffffffffffffffffffffffff1673ffffffffffffffffffffffffffffffffffffffff16631c3db2e030836040518363ffffffff1660e01b81526004016102869291906119c8565b600060405180830381600087803b1580156102a057600080fd5b505af11580156102b4573d6000803e3d6000fd5b505050506000600160009054906101000a900473ffffffffffffffffffffffffffffffffffffffff1673ffffffffffffffffffffffffffffffffffffffff166370a08231306040518263ffffffff1660e01b8152600401610315919061179c565b602060405180830381865afa158015610332573d6000803e3d6000fd5b505050506040513d601f19601f820116820180604052508101906103569190611a0d565b9050600160009054906101000a900473ffffffffffffffffffffffffffffffffffffffff1673ffffffffffffffffffffffffffffffffffffffff1663095ea7b3600360009054906101000a900473ffffffffffffffffffffffffffffffffffffffff16836040518363ffffffff1660e01b81526004016103d7929190611a49565b6020604051808303816000875af11580156103f6573d6000803e3d6000fd5b505050506040513d601f19601f8201168201806040525081019061041a9190611a87565b506060600115158815150361056f57600360009054906101000a900473ffffffffffffffffffffffffffffffffffffffff1673ffffffffffffffffffffffffffffffffffffffff166313dcfc598388600160009054906101000a900473ffffffffffffffffffffffffffffffffffffffff168f73ffffffffffffffffffffffffffffffffffffffff16636f307dc36040518163ffffffff1660e01b8152600401602060405180830381865afa1580156104d7573d6000803e3d6000fd5b505050506040513d601f19601f820116820180604052508101906104fb9190611ac9565b8c308b6040518863ffffffff1660e01b81526004016105209796959493929190611b05565b6000604051808303816000875af115801561053f573d6000803e3d6000fd5b505050506040513d6000823e3d601f19601f820116820180604052508101906105689190611c37565b905061061d565b600360009054906101000a900473ffffffffffffffffffffffffffffffffffffffff1673ffffffffffffffffffffffffffffffffffffffff1663f41766d883888830896040518663ffffffff1660e01b81526004016105d2959493929190611d8f565b6000604051808303816000875af11580156105f1573d6000803e3d6000fd5b505050506040513d6000823e3d601f19601f8201168201806040525081019061061a9190611c37565b90505b610653816001835161062f9190611e18565b815181106106405761063f61188b565b5b60200260200101518b60ff168b8e611087565b5050505050505050505050565b610668611009565b6106726000611259565b565b61067c611009565b60008290506000806000808473ffffffffffffffffffffffffffffffffffffffff1663c37f68e2306040518263ffffffff1660e01b81526004016106c0919061179c565b608060405180830381865afa1580156106dd573d6000803e3d6000fd5b505050506040513d601f19601f820116820180604052508101906107019190611e4c565b8094508195508296508397505050505060008414610754576040517f08c379a000000000000000000000000000000000000000000000000000000000815260040161074b90611f36565b60405180910390fd5b6000670de0b6b3a7640000848361076b9190611f56565b6107759190611fc7565b90506000805b60008511156109ae5784670de0b6b3a76400008a8561079a9190611f56565b6107a49190611fc7565b6107ae9190611e18565b91508773ffffffffffffffffffffffffffffffffffffffff1663852a12e3836040518263ffffffff1660e01b81526004016107e99190611ff8565b6020604051808303816000875af1158015610808573d6000803e3d6000fd5b505050506040513d601f19601f8201168201806040525081019061082c9190611a0d565b5084821161083a578161083c565b845b90508773ffffffffffffffffffffffffffffffffffffffff16630e752702826040518263ffffffff1660e01b81526004016108779190611ff8565b6020604051808303816000875af1158015610896573d6000803e3d6000fd5b505050506040513d601f19601f820116820180604052508101906108ba9190611a0d565b508773ffffffffffffffffffffffffffffffffffffffff1663c37f68e2306040518263ffffffff1660e01b81526004016108f4919061179c565b608060405180830381865afa158015610911573d6000803e3d6000fd5b505050506040513d601f19601f820116820180604052508101906109359190611e4c565b809750819850829950839a505050505060008714610988576040517f08c379a000000000000000000000000000000000000000000000000000000000815260040161097f90611f36565b60405180910390fd5b670de0b6b3a7640000868561099d9190611f56565b6109a79190611fc7565b925061077b565b60008873ffffffffffffffffffffffffffffffffffffffff166370a08231306040518263ffffffff1660e01b81526004016109e9919061179c565b602060405180830381865afa158015610a06573d6000803e3d6000fd5b505050506040513d601f19601f82011682018060405250810190610a2a9190611a0d565b90508873ffffffffffffffffffffffffffffffffffffffff1663852a12e3826040518263ffffffff1660e01b8152600401610a659190611ff8565b6020604051808303816000875af1158015610a84573d6000803e3d6000fd5b505050506040513d601f19601f82011682018060405250810190610aa89190611a0d565b505050505050505050505050565b610abe611009565b8173ffffffffffffffffffffffffffffffffffffffff166323b872dd3330886040518463ffffffff1660e01b8152600401610afb93929190612013565b6020604051808303816000875af1158015610b1a573d6000803e3d6000fd5b505050506040513d601f19601f82011682018060405250810190610b3e9190611a87565b50610b4e858560ff168584611087565b5050505050565b60008060009054906101000a900473ffffffffffffffffffffffffffffffffffffffff16905090565b610b86611009565b60008190508073ffffffffffffffffffffffffffffffffffffffff1663a9059cbb338373ffffffffffffffffffffffffffffffffffffffff166370a08231306040518263ffffffff1660e01b8152600401610be1919061179c565b602060405180830381865afa158015610bfe573d6000803e3d6000fd5b505050506040513d601f19601f82011682018060405250810190610c229190611a0d565b6040518363ffffffff1660e01b8152600401610c3f929190611a49565b6020604051808303816000875af1158015610c5e573d6000803e3d6000fd5b505050506040513d601f19601f82011682018060405250810190610c829190611a87565b505050565b610c8f611009565b8173ffffffffffffffffffffffffffffffffffffffff1663095ea7b3827fffffffffffffffffffffffffffffffffffffffffffffffffffffffffffffffff6040518363ffffffff1660e01b8152600401610cea929190612085565b6020604051808303816000875af1158015610d09573d6000803e3d6000fd5b505050506040513d601f19601f82011682018060405250810190610d2d9190611a87565b506000600167ffffffffffffffff811115610d4b57610d4a611454565b5b604051908082528060200260200182016040528015610d795781602001602082028036833780820191505090505b5090508181600081518110610d9157610d9061188b565b5b602002602001019073ffffffffffffffffffffffffffffffffffffffff16908173ffffffffffffffffffffffffffffffffffffffff1681525050600260009054906101000a900473ffffffffffffffffffffffffffffffffffffffff1673ffffffffffffffffffffffffffffffffffffffff1663c2998238826040518263ffffffff1660e01b8152600401610e26919061214c565b6000604051808303816000875af1158015610e45573d6000803e3d6000fd5b505050506040513d6000823e3d601f19601f82011682018060405250810190610e6e9190611c37565b50505050565b610e7c611009565b600073ffffffffffffffffffffffffffffffffffffffff168173ffffffffffffffffffffffffffffffffffffffff1603610eeb576040517f08c379a0000000000000000000000000000000000000000000000000000000008152600401610ee2906121e0565b60405180910390fd5b610ef481611259565b50565b610eff611009565b83600260006101000a81548173ffffffffffffffffffffffffffffffffffffffff021916908373ffffffffffffffffffffffffffffffffffffffff16021790555082600360006101000a81548173ffffffffffffffffffffffffffffffffffffffff021916908373ffffffffffffffffffffffffffffffffffffffff16021790555081600460006101000a81548173ffffffffffffffffffffffffffffffffffffffff021916908373ffffffffffffffffffffffffffffffffffffffff16021790555080600160006101000a81548173ffffffffffffffffffffffffffffffffffffffff021916908373ffffffffffffffffffffffffffffffffffffffff16021790555050505050565b61101161131d565b73ffffffffffffffffffffffffffffffffffffffff1661102f610b55565b73ffffffffffffffffffffffffffffffffffffffff1614611085576040517f08c379a000000000000000000000000000000000000000000000000000000000815260040161107c9061224c565b60405180910390fd5b565b6000819050600085905060005b858160ff1610156111d3578273ffffffffffffffffffffffffffffffffffffffff1663a0712d68836040518263ffffffff1660e01b81526004016110d89190611ff8565b6020604051808303816000875af11580156110f7573d6000803e3d6000fd5b505050506040513d601f19601f8201168201806040525081019061111b9190611a0d565b506000670de0b6b3a764000086846111339190611f56565b61113d9190611fc7565b90508373ffffffffffffffffffffffffffffffffffffffff1663c5ebeaec826040518263ffffffff1660e01b81526004016111789190611ff8565b6020604051808303816000875af1158015611197573d6000803e3d6000fd5b505050506040513d601f19601f820116820180604052508101906111bb9190611a0d565b508092505080806111cb9061226c565b915050611094565b508173ffffffffffffffffffffffffffffffffffffffff1663a0712d68826040518263ffffffff1660e01b815260040161120d9190611ff8565b6020604051808303816000875af115801561122c573d6000803e3d6000fd5b505050506040513d601f19601f820116820180604052508101906112509190611a0d565b50505050505050565b60008060009054906101000a900473ffffffffffffffffffffffffffffffffffffffff169050816000806101000a81548173ffffffffffffffffffffffffffffffffffffffff021916908373ffffffffffffffffffffffffffffffffffffffff1602179055508173ffffffffffffffffffffffffffffffffffffffff168173ffffffffffffffffffffffffffffffffffffffff167f8be0079c531659141344cd1fd0a4f28419497f9722a3daafe3b4186f6b6457e060405160405180910390a35050565b600033905090565b6000604051905090565b600080fd5b600080fd5b600073ffffffffffffffffffffffffffffffffffffffff82169050919050565b600061136482611339565b9050919050565b61137481611359565b811461137f57600080fd5b50565b6000813590506113918161136b565b92915050565b600060ff82169050919050565b6113ad81611397565b81146113b857600080fd5b50565b6000813590506113ca816113a4565b92915050565b6000819050919050565b6113e3816113d0565b81146113ee57600080fd5b50565b600081359050611400816113da565b92915050565b60008115159050919050565b61141b81611406565b811461142657600080fd5b50565b60008135905061143881611412565b92915050565b600080fd5b6000601f19601f8301169050919050565b7f4e487b7100000000000000000000000000000000000000000000000000000000600052604160045260246000fd5b61148c82611443565b810181811067ffffffffffffffff821117156114ab576114aa611454565b5b80604052505050565b60006114be611325565b90506114ca8282611483565b919050565b600067ffffffffffffffff8211156114ea576114e9611454565b5b602082029050602081019050919050565b600080fd5b600080fd5b60006060828403121561151b5761151a611500565b5b61152560606114b4565b9050600061153584828501611382565b600083015250602061154984828501611382565b602083015250604061155d84828501611429565b60408301525092915050565b600061157c611577846114cf565b6114b4565b9050808382526020820190506060840283018581111561159f5761159e6114fb565b5b835b818110156115c857806115b48882611505565b8452602084019350506060810190506115a1565b5050509392505050565b600082601f8301126115e7576115e661143e565b5b81356115f7848260208601611569565b91505092915050565b600080600080600080600080610100898b0312156116215761162061132f565b5b600061162f8b828c01611382565b98505060206116408b828c016113bb565b97505060406116518b828c016113f1565b96505060606116628b828c01611429565b95505060806116738b828c01611429565b94505060a06116848b828c016113f1565b93505060c089013567ffffffffffffffff8111156116a5576116a4611334565b5b6116b18b828c016115d2565b92505060e06116c28b828c016113f1565b9150509295985092959890939650565b600080604083850312156116e9576116e861132f565b5b60006116f785828601611382565b9250506020611708858286016113f1565b9150509250929050565b600080600080600060a0868803121561172e5761172d61132f565b5b600061173c888289016113f1565b955050602061174d888289016113bb565b945050604061175e888289016113f1565b935050606061176f88828901611382565b925050608061178088828901611382565b9150509295509295909350565b61179681611359565b82525050565b60006020820190506117b1600083018461178d565b92915050565b6000602082840312156117cd576117cc61132f565b5b60006117db84828501611382565b91505092915050565b600080604083850312156117fb576117fa61132f565b5b600061180985828601611382565b925050602061181a85828601611382565b9150509250929050565b6000806000806080858703121561183e5761183d61132f565b5b600061184c87828801611382565b945050602061185d87828801611382565b935050604061186e87828801611382565b925050606061187f87828801611382565b91505092959194509250565b7f4e487b7100000000000000000000000000000000000000000000000000000000600052603260045260246000fd5b600081519050919050565b600082825260208201905092915050565b6000819050602082019050919050565b6000819050919050565b600061190b61190661190184611339565b6118e6565b611339565b9050919050565b600061191d826118f0565b9050919050565b600061192f82611912565b9050919050565b61193f81611924565b82525050565b60006119518383611936565b60208301905092915050565b6000602082019050919050565b6000611975826118ba565b61197f81856118c5565b935061198a836118d6565b8060005b838110156119bb5781516119a28882611945565b97506119ad8361195d565b92505060018101905061198e565b5085935050505092915050565b60006040820190506119dd600083018561178d565b81810360208301526119ef818461196a565b90509392505050565b600081519050611a07816113da565b92915050565b600060208284031215611a2357611a2261132f565b5b6000611a31848285016119f8565b91505092915050565b611a43816113d0565b82525050565b6000604082019050611a5e600083018561178d565b611a6b6020830184611a3a565b9392505050565b600081519050611a8181611412565b92915050565b600060208284031215611a9d57611a9c61132f565b5b6000611aab84828501611a72565b91505092915050565b600081519050611ac38161136b565b92915050565b600060208284031215611adf57611ade61132f565b5b6000611aed84828501611ab4565b91505092915050565b611aff81611406565b82525050565b600060e082019050611b1a600083018a611a3a565b611b276020830189611a3a565b611b34604083018861178d565b611b41606083018761178d565b611b4e6080830186611af6565b611b5b60a083018561178d565b611b6860c0830184611a3a565b98975050505050505050565b600067ffffffffffffffff821115611b8f57611b8e611454565b5b602082029050602081019050919050565b6000611bb3611bae84611b74565b6114b4565b90508083825260208201905060208402830185811115611bd657611bd56114fb565b5b835b81811015611bff5780611beb88826119f8565b845260208401935050602081019050611bd8565b5050509392505050565b600082601f830112611c1e57611c1d61143e565b5b8151611c2e848260208601611ba0565b91505092915050565b600060208284031215611c4d57611c4c61132f565b5b600082015167ffffffffffffffff811115611c6b57611c6a611334565b5b611c7784828501611c09565b91505092915050565b600081519050919050565b600082825260208201905092915050565b6000819050602082019050919050565b611cb581611359565b82525050565b611cc481611406565b82525050565b606082016000820151611ce06000850182611cac565b506020820151611cf36020850182611cac565b506040820151611d066040850182611cbb565b50505050565b6000611d188383611cca565b60608301905092915050565b6000602082019050919050565b6000611d3c82611c80565b611d468185611c8b565b9350611d5183611c9c565b8060005b83811015611d82578151611d698882611d0c565b9750611d7483611d24565b925050600181019050611d55565b5085935050505092915050565b600060a082019050611da46000830188611a3a565b611db16020830187611a3a565b8181036040830152611dc38186611d31565b9050611dd2606083018561178d565b611ddf6080830184611a3a565b9695505050505050565b7f4e487b7100000000000000000000000000000000000000000000000000000000600052601160045260246000fd5b6000611e23826113d0565b9150611e2e836113d0565b9250828203905081811115611e4657611e45611de9565b5b92915050565b60008060008060808587031215611e6657611e6561132f565b5b6000611e74878288016119f8565b9450506020611e85878288016119f8565b9350506040611e96878288016119f8565b9250506060611ea7878288016119f8565b91505092959194509250565b600082825260208201905092915050565b7f6572726f7220696e2067657474696e67206163636f756e7420736e617073686f60008201527f7400000000000000000000000000000000000000000000000000000000000000602082015250565b6000611f20602183611eb3565b9150611f2b82611ec4565b604082019050919050565b60006020820190508181036000830152611f4f81611f13565b9050919050565b6000611f61826113d0565b9150611f6c836113d0565b9250828202611f7a816113d0565b91508282048414831517611f9157611f90611de9565b5b5092915050565b7f4e487b7100000000000000000000000000000000000000000000000000000000600052601260045260246000fd5b6000611fd2826113d0565b9150611fdd836113d0565b925082611fed57611fec611f98565b5b828204905092915050565b600060208201905061200d6000830184611a3a565b92915050565b6000606082019050612028600083018661178d565b612035602083018561178d565b6120426040830184611a3a565b949350505050565b6000819050919050565b600061206f61206a6120658461204a565b6118e6565b6113d0565b9050919050565b61207f81612054565b82525050565b600060408201905061209a600083018561178d565b6120a76020830184612076565b9392505050565b600081519050919050565b6000819050602082019050919050565b60006120d58383611cac565b60208301905092915050565b6000602082019050919050565b60006120f9826120ae565b61210381856118c5565b935061210e836120b9565b8060005b8381101561213f57815161212688826120c9565b9750612131836120e1565b925050600181019050612112565b5085935050505092915050565b6000602082019050818103600083015261216681846120ee565b905092915050565b7f4f776e61626c653a206e6577206f776e657220697320746865207a65726f206160008201527f6464726573730000000000000000000000000000000000000000000000000000602082015250565b60006121ca602683611eb3565b91506121d58261216e565b604082019050919050565b600060208201905081810360008301526121f9816121bd565b9050919050565b7f4f776e61626c653a2063616c6c6572206973206e6f7420746865206f776e6572600082015250565b6000612236602083611eb3565b915061224182612200565b602082019050919050565b6000602082019050818103600083015261226581612229565b9050919050565b600061227782611397565b915060ff820361228a57612289611de9565b5b60018201905091905056fea2646970667358221220f6c7833980f729ae42ee63768307f0d06fe9f4c3c78041bba33157f44c1036b764736f6c63430008110033",
  "linkReferences": {},
  "deployedLinkReferences": {}
}