{
  "_format": "hh-sol-artifact-1",
  "contractName": "WhitelistingModuleV2",
  "sourceName": "contracts/WhitelistingModuleV2.sol",
  "abi": [
    {
      "inputs": [
        {
          "internalType": "address",
          "name": "_target",
          "type": "address"
        }
      ],
      "stateMutability": "nonpayable",
      "type": "constructor"
    },
    {
      "anonymous": false,
      "inputs": [
        {
          "indexed": true,
          "internalType": "address",
          "name": "previousTarget",
          "type": "address"
        },
        {
          "indexed": true,
          "internalType": "address",
          "name": "newTarget",
          "type": "address"
        }
      ],
      "name": "TargetSet",
      "type": "event"
    },
    {
      "inputs": [
        {
          "internalType": "address",
          "name": "delegate",
          "type": "address"
        },
        {
          "internalType": "bytes",
          "name": "functionIdentifier",
          "type": "bytes"
        },
        {
          "components": [
            {
              "internalType": "uint16",
              "name": "offset",
              "type": "uint16"
            },
            {
              "internalType": "uint16",
              "name": "dataLength",
              "type": "uint16"
            },
            {
              "internalType": "bytes[]",
              "name": "args",
              "type": "bytes[]"
            }
          ],
          "internalType": "struct WhitelistingModuleV2.Allowance",
          "name": "args",
          "type": "tuple"
        }
      ],
      "name": "addNewAllowance",
      "outputs": [],
      "stateMutability": "nonpayable",
      "type": "function"
    },
    {
      "inputs": [
        {
          "internalType": "address",
          "name": "delegate",
          "type": "address"
        }
      ],
      "name": "addNewOperator",
      "outputs": [],
      "stateMutability": "nonpayable",
      "type": "function"
    },
    {
      "inputs": [
        {
          "internalType": "address",
          "name": "to",
          "type": "address"
        },
        {
          "internalType": "uint256",
          "name": "value",
          "type": "uint256"
        },
        {
          "internalType": "bytes",
          "name": "data",
          "type": "bytes"
        }
      ],
      "name": "execTransaction",
      "outputs": [
        {
          "internalType": "bool",
          "name": "success",
          "type": "bool"
        }
      ],
      "stateMutability": "nonpayable",
      "type": "function"
    },
    {
      "inputs": [],
      "name": "getWhitelistedContracts",
      "outputs": [
        {
          "internalType": "address[]",
          "name": "",
          "type": "address[]"
        }
      ],
      "stateMutability": "view",
      "type": "function"
    },
    {
      "inputs": [],
      "name": "getWhitelistedOperators",
      "outputs": [
        {
          "internalType": "address[]",
          "name": "",
          "type": "address[]"
        }
      ],
      "stateMutability": "view",
      "type": "function"
    },
    {
      "inputs": [
        {
          "internalType": "address",
          "name": "removable",
          "type": "address"
        }
      ],
      "name": "removeAllowance",
      "outputs": [],
      "stateMutability": "nonpayable",
      "type": "function"
    },
    {
      "inputs": [
        {
          "internalType": "address",
          "name": "removable",
          "type": "address"
        }
      ],
      "name": "removeOperator",
      "outputs": [],
      "stateMutability": "nonpayable",
      "type": "function"
    },
    {
      "inputs": [
        {
          "internalType": "address",
          "name": "_target",
          "type": "address"
        }
      ],
      "name": "setTarget",
      "outputs": [],
      "stateMutability": "nonpayable",
      "type": "function"
    },
    {
      "inputs": [],
      "name": "target",
      "outputs": [
        {
          "internalType": "address",
          "name": "",
          "type": "address"
        }
      ],
      "stateMutability": "view",
      "type": "function"
    },
    {
      "inputs": [
        {
          "internalType": "uint256",
          "name": "",
          "type": "uint256"
        }
      ],
      "name": "whitelistedAddresses",
      "outputs": [
        {
          "internalType": "address",
          "name": "",
          "type": "address"
        }
      ],
      "stateMutability": "view",
      "type": "function"
    },
    {
      "inputs": [
        {
          "internalType": "uint256",
          "name": "",
          "type": "uint256"
        }
      ],
      "name": "whitelistedOperators",
      "outputs": [
        {
          "internalType": "address",
          "name": "",
          "type": "address"
        }
      ],
      "stateMutability": "view",
      "type": "function"
    }
  ],
  "bytecode": "0x60806040523480156200001157600080fd5b5060405162002861380380620028618339818101604052810190620000379190620000e8565b806000806101000a81548173ffffffffffffffffffffffffffffffffffffffff021916908373ffffffffffffffffffffffffffffffffffffffff160217905550506200011a565b600080fd5b600073ffffffffffffffffffffffffffffffffffffffff82169050919050565b6000620000b08262000083565b9050919050565b620000c281620000a3565b8114620000ce57600080fd5b50565b600081519050620000e281620000b7565b92915050565b6000602082840312156200010157620001006200007e565b5b60006200011184828501620000d1565b91505092915050565b612737806200012a6000396000f3fe608060405234801561001057600080fd5b50600436106100a95760003560e01c80638af86cfa116100715780638af86cfa14610152578063940437ed1461016e578063ab4ed83e1461018a578063ac8a584a146101ba578063ba4e5c49146101d6578063d4b8399214610206576100a9565b8063495c8bf9146100ae578063630868dc146100cc578063776d1a01146100fc57806379764f55146101185780637e47daa114610134575b600080fd5b6100b6610224565b6040516100c391906117df565b60405180910390f35b6100e660048036038101906100e1919061184b565b6102b2565b6040516100f39190611887565b60405180910390f35b610116600480360381019061011191906118ce565b6102f1565b005b610132600480360381019061012d91906118ce565b61040d565b005b61013c6105b0565b60405161014991906117df565b60405180910390f35b61016c600480360381019061016791906118ce565b61063e565b005b61018860048036038101906101839190611beb565b610913565b005b6101a4600480360381019061019f9190611cd1565b610b67565b6040516101b19190611d60565b60405180910390f35b6101d460048036038101906101cf91906118ce565b6112da565b005b6101f060048036038101906101eb919061184b565b6115b2565b6040516101fd9190611887565b60405180910390f35b61020e6115f1565b60405161021b9190611887565b60405180910390f35b606060028054806020026020016040519081016040528092919081815260200182805480156102a857602002820191906000526020600020905b8160009054906101000a900473ffffffffffffffffffffffffffffffffffffffff1673ffffffffffffffffffffffffffffffffffffffff168152602001906001019080831161025e575b5050505050905090565b600281815481106102c257600080fd5b906000526020600020016000915054906101000a900473ffffffffffffffffffffffffffffffffffffffff1681565b60008054906101000a900473ffffffffffffffffffffffffffffffffffffffff1673ffffffffffffffffffffffffffffffffffffffff163373ffffffffffffffffffffffffffffffffffffffff161461034957600080fd5b60008060009054906101000a900473ffffffffffffffffffffffffffffffffffffffff169050816000806101000a81548173ffffffffffffffffffffffffffffffffffffffff021916908373ffffffffffffffffffffffffffffffffffffffff1602179055508173ffffffffffffffffffffffffffffffffffffffff168173ffffffffffffffffffffffffffffffffffffffff167f90cc2f570a6eb594b1580ea3e41247d2d73a55281889e86bd4ec2fc29c7e62d660405160405180910390a35050565b60008054906101000a900473ffffffffffffffffffffffffffffffffffffffff1673ffffffffffffffffffffffffffffffffffffffff163373ffffffffffffffffffffffffffffffffffffffff161461046557600080fd5b600460008273ffffffffffffffffffffffffffffffffffffffff1673ffffffffffffffffffffffffffffffffffffffff16815260200190815260200160002060009054906101000a900460ff16156104f2576040517f08c379a00000000000000000000000000000000000000000000000000000000081526004016104e990611dd8565b60405180910390fd5b6001600460008373ffffffffffffffffffffffffffffffffffffffff1673ffffffffffffffffffffffffffffffffffffffff16815260200190815260200160002060006101000a81548160ff0219169083151502179055506002819080600181540180825580915050600190039060005260206000200160009091909190916101000a81548173ffffffffffffffffffffffffffffffffffffffff021916908373ffffffffffffffffffffffffffffffffffffffff16021790555050565b6060600180548060200260200160405190810160405280929190818152602001828054801561063457602002820191906000526020600020905b8160009054906101000a900473ffffffffffffffffffffffffffffffffffffffff1673ffffffffffffffffffffffffffffffffffffffff16815260200190600101908083116105ea575b5050505050905090565b60008054906101000a900473ffffffffffffffffffffffffffffffffffffffff1673ffffffffffffffffffffffffffffffffffffffff163373ffffffffffffffffffffffffffffffffffffffff161461069657600080fd5b600360008273ffffffffffffffffffffffffffffffffffffffff1673ffffffffffffffffffffffffffffffffffffffff16815260200190815260200160002060009054906101000a900460ff16610722576040517f08c379a000000000000000000000000000000000000000000000000000000000815260040161071990611e44565b60405180910390fd5b6000600360008373ffffffffffffffffffffffffffffffffffffffff1673ffffffffffffffffffffffffffffffffffffffff16815260200190815260200160002060006101000a81548160ff02191690831515021790555060005b6001808054905061078e9190611e93565b8110156108c8578173ffffffffffffffffffffffffffffffffffffffff16600182815481106107c0576107bf611ec7565b5b9060005260206000200160009054906101000a900473ffffffffffffffffffffffffffffffffffffffff1673ffffffffffffffffffffffffffffffffffffffff16036108b55760018080805490506108189190611e93565b8154811061082957610828611ec7565b5b9060005260206000200160009054906101000a900473ffffffffffffffffffffffffffffffffffffffff166001828154811061086857610867611ec7565b5b9060005260206000200160006101000a81548173ffffffffffffffffffffffffffffffffffffffff021916908373ffffffffffffffffffffffffffffffffffffffff1602179055506108c8565b80806108c090611ef6565b91505061077d565b5060018054806108db576108da611f3e565b5b6001900381819060005260206000200160006101000a81549073ffffffffffffffffffffffffffffffffffffffff0219169055905550565b60008054906101000a900473ffffffffffffffffffffffffffffffffffffffff1673ffffffffffffffffffffffffffffffffffffffff163373ffffffffffffffffffffffffffffffffffffffff161461096b57600080fd5b600360008473ffffffffffffffffffffffffffffffffffffffff1673ffffffffffffffffffffffffffffffffffffffff16815260200190815260200160002060009054906101000a900460ff16610a78576001600360008573ffffffffffffffffffffffffffffffffffffffff1673ffffffffffffffffffffffffffffffffffffffff16815260200190815260200160002060006101000a81548160ff0219169083151502179055506001839080600181540180825580915050600190039060005260206000200160009091909190916101000a81548173ffffffffffffffffffffffffffffffffffffffff021916908373ffffffffffffffffffffffffffffffffffffffff1602179055505b600560008473ffffffffffffffffffffffffffffffffffffffff1673ffffffffffffffffffffffffffffffffffffffff16815260200190815260200160002082604051610ac59190611fde565b908152602001604051809103902081908060018154018082558091505060019003906000526020600020906002020160009091909190915060008201518160000160006101000a81548161ffff021916908361ffff16021790555060208201518160000160026101000a81548161ffff021916908361ffff1602179055506040820151816001019080519060200190610b5f929190611615565b505050505050565b6000600360008673ffffffffffffffffffffffffffffffffffffffff1673ffffffffffffffffffffffffffffffffffffffff16815260200190815260200160002060009054906101000a900460ff16610bf5576040517f08c379a0000000000000000000000000000000000000000000000000000000008152600401610bec90611e44565b60405180910390fd5b600460003373ffffffffffffffffffffffffffffffffffffffff1673ffffffffffffffffffffffffffffffffffffffff16815260200190815260200160002060009054906101000a900460ff16610c81576040517f08c379a0000000000000000000000000000000000000000000000000000000008152600401610c7890612041565b60405180910390fd5b60008383600090600492610c979392919061206b565b8080601f016020809104026020016040519081016040528093929190818152602001838380828437600081840152601f19601f8201169050808301925050505050505090506000600560008873ffffffffffffffffffffffffffffffffffffffff1673ffffffffffffffffffffffffffffffffffffffff16815260200190815260200160002082604051610d2b9190611fde565b90815260200160405180910390208054905011610d7d576040517f08c379a0000000000000000000000000000000000000000000000000000000008152600401610d74906120f2565b60405180910390fd5b6000805b600560008973ffffffffffffffffffffffffffffffffffffffff1673ffffffffffffffffffffffffffffffffffffffff16815260200190815260200160002083604051610dce9190611fde565b9081526020016040518091039020805490508110156111e857600560008973ffffffffffffffffffffffffffffffffffffffff1673ffffffffffffffffffffffffffffffffffffffff16815260200190815260200160002083604051610e349190611fde565b90815260200160405180910390208181548110610e5457610e53611ec7565b5b906000526020600020906002020160000160029054906101000a900461ffff1661ffff1686869050036111d557600191506000600560008a73ffffffffffffffffffffffffffffffffffffffff1673ffffffffffffffffffffffffffffffffffffffff16815260200190815260200160002084604051610ed49190611fde565b90815260200160405180910390208281548110610ef457610ef3611ec7565b5b9060005260206000209060020201600101600081548110610f1857610f17611ec7565b5b906000526020600020018054610f2d90612141565b905090506000600560008b73ffffffffffffffffffffffffffffffffffffffff1673ffffffffffffffffffffffffffffffffffffffff16815260200190815260200160002085604051610f809190611fde565b90815260200160405180910390208381548110610fa057610f9f611ec7565b5b906000526020600020906002020160000160009054906101000a900461ffff1661ffff1690506000888883908585610fd89190612172565b92610fe59392919061206b565b8080601f016020809104026020016040519081016040528093929190818152602001838380828437600081840152601f19601f8201169050808301925050505050505090506000805b600560008e73ffffffffffffffffffffffffffffffffffffffff1673ffffffffffffffffffffffffffffffffffffffff1681526020019081526020016000208860405161107b9190611fde565b9081526020016040518091039020868154811061109b5761109a611ec7565b5b90600052602060002090600202016001018054905081101561118f578280519060200120600560008f73ffffffffffffffffffffffffffffffffffffffff1673ffffffffffffffffffffffffffffffffffffffff1681526020019081526020016000208960405161110c9190611fde565b9081526020016040518091039020878154811061112c5761112b611ec7565b5b9060005260206000209060020201600101828154811061114f5761114e611ec7565b5b90600052602060002001604051611166919061223e565b60405180910390200361117c576001915061118f565b808061118790611ef6565b91505061102e565b50806111d0576040517f08c379a00000000000000000000000000000000000000000000000000000000081526004016111c7906122a1565b60405180910390fd5b505050505b80806111e090611ef6565b915050610d81565b5080611229576040517f08c379a00000000000000000000000000000000000000000000000000000000081526004016112209061230d565b60405180910390fd5b60008054906101000a900473ffffffffffffffffffffffffffffffffffffffff1673ffffffffffffffffffffffffffffffffffffffff1663468721a78888888860006040518663ffffffff1660e01b815260040161128b9594939291906123f1565b6020604051808303816000875af11580156112aa573d6000803e3d6000fd5b505050506040513d601f19601f820116820180604052508101906112ce919061246b565b92505050949350505050565b60008054906101000a900473ffffffffffffffffffffffffffffffffffffffff1673ffffffffffffffffffffffffffffffffffffffff163373ffffffffffffffffffffffffffffffffffffffff161461133257600080fd5b600460008273ffffffffffffffffffffffffffffffffffffffff1673ffffffffffffffffffffffffffffffffffffffff16815260200190815260200160002060009054906101000a900460ff166113be576040517f08c379a00000000000000000000000000000000000000000000000000000000081526004016113b590612041565b60405180910390fd5b6000600460008373ffffffffffffffffffffffffffffffffffffffff1673ffffffffffffffffffffffffffffffffffffffff16815260200190815260200160002060006101000a81548160ff02191690831515021790555060005b600160028054905061142b9190611e93565b811015611567578173ffffffffffffffffffffffffffffffffffffffff166002828154811061145d5761145c611ec7565b5b9060005260206000200160009054906101000a900473ffffffffffffffffffffffffffffffffffffffff1673ffffffffffffffffffffffffffffffffffffffff160361155457600260016002805490506114b79190611e93565b815481106114c8576114c7611ec7565b5b9060005260206000200160009054906101000a900473ffffffffffffffffffffffffffffffffffffffff166002828154811061150757611506611ec7565b5b9060005260206000200160006101000a81548173ffffffffffffffffffffffffffffffffffffffff021916908373ffffffffffffffffffffffffffffffffffffffff160217905550611567565b808061155f90611ef6565b915050611419565b50600280548061157a57611579611f3e565b5b6001900381819060005260206000200160006101000a81549073ffffffffffffffffffffffffffffffffffffffff0219169055905550565b600181815481106115c257600080fd5b906000526020600020016000915054906101000a900473ffffffffffffffffffffffffffffffffffffffff1681565b60008054906101000a900473ffffffffffffffffffffffffffffffffffffffff1681565b82805482825590600052602060002090810192821561165d579160200282015b8281111561165c57825182908161164c919061262f565b5091602001919060010190611635565b5b50905061166a919061166e565b5090565b5b8082111561168e57600081816116859190611692565b5060010161166f565b5090565b50805461169e90612141565b6000825580601f106116b057506116cf565b601f0160209004906000526020600020908101906116ce91906116d2565b5b50565b5b808211156116eb5760008160009055506001016116d3565b5090565b600081519050919050565b600082825260208201905092915050565b6000819050602082019050919050565b600073ffffffffffffffffffffffffffffffffffffffff82169050919050565b60006117468261171b565b9050919050565b6117568161173b565b82525050565b6000611768838361174d565b60208301905092915050565b6000602082019050919050565b600061178c826116ef565b61179681856116fa565b93506117a18361170b565b8060005b838110156117d25781516117b9888261175c565b97506117c483611774565b9250506001810190506117a5565b5085935050505092915050565b600060208201905081810360008301526117f98184611781565b905092915050565b6000604051905090565b600080fd5b600080fd5b6000819050919050565b61182881611815565b811461183357600080fd5b50565b6000813590506118458161181f565b92915050565b6000602082840312156118615761186061180b565b5b600061186f84828501611836565b91505092915050565b6118818161173b565b82525050565b600060208201905061189c6000830184611878565b92915050565b6118ab8161173b565b81146118b657600080fd5b50565b6000813590506118c8816118a2565b92915050565b6000602082840312156118e4576118e361180b565b5b60006118f2848285016118b9565b91505092915050565b600080fd5b600080fd5b6000601f19601f8301169050919050565b7f4e487b7100000000000000000000000000000000000000000000000000000000600052604160045260246000fd5b61194e82611905565b810181811067ffffffffffffffff8211171561196d5761196c611916565b5b80604052505050565b6000611980611801565b905061198c8282611945565b919050565b600067ffffffffffffffff8211156119ac576119ab611916565b5b6119b582611905565b9050602081019050919050565b82818337600083830152505050565b60006119e46119df84611991565b611976565b905082815260208101848484011115611a00576119ff611900565b5b611a0b8482856119c2565b509392505050565b600082601f830112611a2857611a276118fb565b5b8135611a388482602086016119d1565b91505092915050565b600080fd5b600080fd5b600061ffff82169050919050565b611a6281611a4b565b8114611a6d57600080fd5b50565b600081359050611a7f81611a59565b92915050565b600067ffffffffffffffff821115611aa057611a9f611916565b5b602082029050602081019050919050565b600080fd5b6000611ac9611ac484611a85565b611976565b90508083825260208201905060208402830185811115611aec57611aeb611ab1565b5b835b81811015611b3357803567ffffffffffffffff811115611b1157611b106118fb565b5b808601611b1e8982611a13565b85526020850194505050602081019050611aee565b5050509392505050565b600082601f830112611b5257611b516118fb565b5b8135611b62848260208601611ab6565b91505092915050565b600060608284031215611b8157611b80611a41565b5b611b8b6060611976565b90506000611b9b84828501611a70565b6000830152506020611baf84828501611a70565b602083015250604082013567ffffffffffffffff811115611bd357611bd2611a46565b5b611bdf84828501611b3d565b60408301525092915050565b600080600060608486031215611c0457611c0361180b565b5b6000611c12868287016118b9565b935050602084013567ffffffffffffffff811115611c3357611c32611810565b5b611c3f86828701611a13565b925050604084013567ffffffffffffffff811115611c6057611c5f611810565b5b611c6c86828701611b6b565b9150509250925092565b600080fd5b60008083601f840112611c9157611c906118fb565b5b8235905067ffffffffffffffff811115611cae57611cad611c76565b5b602083019150836001820283011115611cca57611cc9611ab1565b5b9250929050565b60008060008060608587031215611ceb57611cea61180b565b5b6000611cf9878288016118b9565b9450506020611d0a87828801611836565b935050604085013567ffffffffffffffff811115611d2b57611d2a611810565b5b611d3787828801611c7b565b925092505092959194509250565b60008115159050919050565b611d5a81611d45565b82525050565b6000602082019050611d756000830184611d51565b92915050565b600082825260208201905092915050565b7f6f70657261746f7220616c726561647920616464656400000000000000000000600082015250565b6000611dc2601683611d7b565b9150611dcd82611d8c565b602082019050919050565b60006020820190508181036000830152611df181611db5565b9050919050565b7f61646472657373206e6f7420666f756e64000000000000000000000000000000600082015250565b6000611e2e601183611d7b565b9150611e3982611df8565b602082019050919050565b60006020820190508181036000830152611e5d81611e21565b9050919050565b7f4e487b7100000000000000000000000000000000000000000000000000000000600052601160045260246000fd5b6000611e9e82611815565b9150611ea983611815565b9250828203905081811115611ec157611ec0611e64565b5b92915050565b7f4e487b7100000000000000000000000000000000000000000000000000000000600052603260045260246000fd5b6000611f0182611815565b91507fffffffffffffffffffffffffffffffffffffffffffffffffffffffffffffffff8203611f3357611f32611e64565b5b600182019050919050565b7f4e487b7100000000000000000000000000000000000000000000000000000000600052603160045260246000fd5b600081519050919050565b600081905092915050565b60005b83811015611fa1578082015181840152602081019050611f86565b60008484015250505050565b6000611fb882611f6d565b611fc28185611f78565b9350611fd2818560208601611f83565b80840191505092915050565b6000611fea8284611fad565b915081905092915050565b7f6f70657261746f72206e6f7420666f756e640000000000000000000000000000600082015250565b600061202b601283611d7b565b915061203682611ff5565b602082019050919050565b6000602082019050818103600083015261205a8161201e565b9050919050565b600080fd5b600080fd5b6000808585111561207f5761207e612061565b5b838611156120905761208f612066565b5b6001850283019150848603905094509492505050565b7f66756e6374696f6e206e6f7420666f756e640000000000000000000000000000600082015250565b60006120dc601283611d7b565b91506120e7826120a6565b602082019050919050565b6000602082019050818103600083015261210b816120cf565b9050919050565b7f4e487b7100000000000000000000000000000000000000000000000000000000600052602260045260246000fd5b6000600282049050600182168061215957607f821691505b60208210810361216c5761216b612112565b5b50919050565b600061217d82611815565b915061218883611815565b92508282019050808211156121a05761219f611e64565b5b92915050565b60008190508160005260206000209050919050565b600081546121c881612141565b6121d28186611f78565b945060018216600081146121ed576001811461220257612235565b60ff1983168652811515820286019350612235565b61220b856121a6565b60005b8381101561222d5781548189015260018201915060208101905061220e565b838801955050505b50505092915050565b600061224a82846121bb565b915081905092915050565b7f696e76616c696420617267756d656e7400000000000000000000000000000000600082015250565b600061228b601083611d7b565b915061229682612255565b602082019050919050565b600060208201905081810360008301526122ba8161227e565b9050919050565b7f64617461206c656e677468206d6973736d617463680000000000000000000000600082015250565b60006122f7601583611d7b565b9150612302826122c1565b602082019050919050565b60006020820190508181036000830152612326816122ea565b9050919050565b61233681611815565b82525050565b600082825260208201905092915050565b6000612359838561233c565b93506123668385846119c2565b61236f83611905565b840190509392505050565b7f4e487b7100000000000000000000000000000000000000000000000000000000600052602160045260246000fd5b600281106123ba576123b961237a565b5b50565b60008190506123cb826123a9565b919050565b60006123db826123bd565b9050919050565b6123eb816123d0565b82525050565b60006080820190506124066000830188611878565b612413602083018761232d565b818103604083015261242681858761234d565b905061243560608301846123e2565b9695505050505050565b61244881611d45565b811461245357600080fd5b50565b6000815190506124658161243f565b92915050565b6000602082840312156124815761248061180b565b5b600061248f84828501612456565b91505092915050565b60006020601f8301049050919050565b600082821b905092915050565b6000600883026124e57fffffffffffffffffffffffffffffffffffffffffffffffffffffffffffffffff826124a8565b6124ef86836124a8565b95508019841693508086168417925050509392505050565b6000819050919050565b600061252c61252761252284611815565b612507565b611815565b9050919050565b6000819050919050565b61254683612511565b61255a61255282612533565b8484546124b5565b825550505050565b600090565b61256f612562565b61257a81848461253d565b505050565b5b8181101561259e57612593600082612567565b600181019050612580565b5050565b601f8211156125e3576125b4816121a6565b6125bd84612498565b810160208510156125cc578190505b6125e06125d885612498565b83018261257f565b50505b505050565b600082821c905092915050565b6000612606600019846008026125e8565b1980831691505092915050565b600061261f83836125f5565b9150826002028217905092915050565b61263882611f6d565b67ffffffffffffffff81111561265157612650611916565b5b61265b8254612141565b6126668282856125a2565b600060209050601f8311600181146126995760008415612687578287015190505b6126918582612613565b8655506126f9565b601f1984166126a7866121a6565b60005b828110156126cf578489015182556001820191506020850194506020810190506126aa565b868310156126ec57848901516126e8601f8916826125f5565b8355505b6001600288020188555050505b50505050505056fea264697066735822122078862e6d2fe7eb95f0246393bf0fc49f85fc930b1378d57ed70ebdf37b958d5764736f6c63430008110033",
  "linkReferences": {},
  "deployedLinkReferences": {}
}